:100000000C9434000C9451000C9451000C94510049
:100010000C9451000C9451000C9451000C9451001C
:100020000C9451000C9451000C9451000C9453000A
:100030000C9451000C9451000C9451000C945100FC
:100040000C9451000C9451000C9451000C945100EC
:100050000C9451000C9451000C9451000C945100DC
:100060000C9451000C94510011241FBECFEFD8E026
:10007000DEBFCDBF11E0A0E0B1E0E6E9F3E002C0F1
:1000800005900D92A630B107D9F721E0A6E0B1E0C6
:1000900001C01D92A632B207E1F70E945D010C94E7
:1000A000C9010C9400001F920F920FB60F921124F9
:1000B0008F939F93AF93BF938091220190912301DF
:1000C000A0912401B09125010196A11DB11D80933D
:1000D000220190932301A0932401B0932501BF91A5
:1000E000AF919F918F910F900FBE0F901F90189519
:1000F000F8946091220170912301809124019091E4
:1001000025017894089518992FC080910C01909141
:100110000D01019690930D0180930C0110920B013B
:1001200010920A01853F9140BCF180910E0190919F
:100130000F01892BA1F4809108019091090101968A
:100140008330910511F481E090E090930901809350
:10015000080181E090E090930F0180930E011092CE
:100160000D0110920C01089580910A0190910B01EC
:10017000019690930B0180930A0110920D01109249
:100180000C01853F914044F010920F0110920E0136
:1001900010920B0110920A0108950F931F93809102
:1001A000080190910901019709F084C00E9478002C
:1001B0000091100110911101209112013091130151
:1001C000601771078207930708F474C01092210129
:1001D000109220012091200130912101809106018F
:1001E000909107012817390784F463E070E084E1F7
:1001F00091E00E94C6018091200190912101019619
:100200009093210180932001E5CF1092210110925B
:100210002001809106019091070127E030E0281B22
:10022000390B40912001509121014217530784F46A
:1002300063E070E087E191E00E94C60180912001B7
:100240009091210101969093210180932001E1CFAB
:100250002091000130910101820F931F90930701BB
:10026000809306018730910511F0892B39F431957F
:1002700021953109309301012093000180911001F3
:1002800090911101A0911201B091130140910201CE
:10029000509103016091040170910501840F951F35
:1002A000A61FB71F8093100190931101A093120114
:1002B000B09313011F910F910895229A2098289AC4
:1002C000809181008A608093810087E0809389001B
:1002D00080ED8093880080916F00826080936F0032
:1002E0007894219A109215018FEF80931401109247
:1002F00016018093180110921701109219011092A3
:100300001B0110921A0180931C0110921E01109281
:100310001D0110921F010E9483000E94CD00FBCF9F
:1003200035B1242F2095232335B1342B4FB7F894C2
:10033000FC01680F791FE617F70789F0819198E0B3
:1003400035B9000000C087FF25B9880F000000C044
:1003500000C000C025B900C09A9591F7ECCF4FBFFF
:10036000089524B1242B24B99B01220F331F260F9B
:10037000371FB9010E94900187EC90E00197F1F7D7
:1003800000C00000089542E00C94B10142E00C94DA
:060390009001F894FFCF7C
:060396000100F40100006B
:00000001FF
